:020000040000FA
:10000000D0E2FF1F250400002D0400002F04000093
:1000100000000000000000000000000000000000E0
:10002000000000000000000000000000310400009B
:100030000000000000000000330400003504000050
:1000400037040000370400003704000037040000C4
:1000500037040000370400003704000037040000B4
:1000600037040000370400003704000037040000A4
:100070003704000037040000370400003704000094
:100080003704000037040000370400003704000084
:100090003704000037040000370400003704000074
:1000A00091120000370400003704000037040000FC
:1000B0003704000037040000370400003704000054
:1000C0000000000000000000000000000000000030
:1000D0000000000000000000000000000000000020
:1000E0000000000000000000000000000000000010
:10040000FFFFFFFFFFFFFFFFFFFFFFFFFEFFFFFFFD
:100410000348854600F046F8004800478333000053
:10042000006000200448804704480047FEE7FEE7DC
:10043000FEE7FEE7FEE7FEE72512000011040000DC
:1004400030B50B46014600202022012409E00D466C
:10045000D5409D4205D31D469540491B25469540F4
:1004600040191546521E002DF1DC30BD70B5002438
:100470002546002801DA01244042002901DA01253D
:100480004942FFF7DDFFAC4200D04042002C00D0D3
:10049000494270BD421C0178401C0029FBD1801AE2
:1004A00070470000064C0125064E05E0E36807CCC6
:1004B0002B430C3C98471034B442F7D3FFF7ACFF02
:1004C00088340000A834000010B500BF104811495E
:1004D000486000BF104800F00BFB1048104908604E
:1004E00000BF0D4A0D3A0021084600F039F80A4BCA
:1004F000143BDA789978587800F04AFB06480838B7
:1005000000F0D4FB04481438C0690649086010BDE7
:100510000000031040800440CC33000000127A0039
:1005200008E0FF1F1CE1FF1F10B50A48020C0A4B30
:10053000D1180A68012383401A430A6000BF0222CF
:100540000121064800F0B2FD02221146034800F0E6
:10055000ADFD10BD0900381000700440009004404B
:1005600070B506460D461446002C00D004E00E4A35
:100570000EA113A002F0D4FE304600F0F5FA214699
:10058000284600F05BFB10480078C02188430E49E4
:10059000087000BF0C4880790C21084080080328AF
:1005A000F8D1002070BD0000EF050000647269768C
:1005B0006572735C66736C5F636C6F636B2E630054
:1005C000636F6E66696700000040064070B50446C0
:1005D000002C00D005E0BF22920012A116A002F06C
:1005E0009FFE00256078C006C00E054314480571C3
:1005F000407940094001A178C906C90E0843104955
:1006000048710846007921784022114308430C497B
:10061000087100BF0A488079402108400028F9D0BD
:1006200070BD0000647269766572735C66736C5F9E
:10063000636C6F636B2E6300636F6E6669670000A7
:100640000040064070B5024601241548050C154EC1
:10065000AB191D6801268640B5431D6000BF002A06
:1006600006D111484068A30498430F4B58600BE033
:100670000E48814200D000240B48406805231B042B
:1006800098431043084B58600548050C054EAB19BC
:100690001D680126864035431D6000BF204670BDA1
:1006A000120034100070044000800440006CDC0232
:1006B00010B516480068032189040840800C002802
:1006C00004D002280CD003281BD117E000F05AF9FF
:1006D0000121C903884200D100E00020044612E055
:1006E0000B480068002800D005E0FF22643209A111
:1006F0000DA002F015FE0648046804E07D24E40025
:1007000001E0002400BF00BF204610BD007004407F
:100710000CE0FF1F647269766572735C66736C5FD0
:10072000636C6F636B2E6300675F7874616C333248
:10073000467265710000000010B500F073F80446C1
:10074000002C06D000F05CF9C008A04201D320467E
:1007500010BD0020FCE7000070B500F0F3F805467E
:10076000002D01D1284670BD174800783821084077
:10077000C4082846E0400546134840783021084028
:100780000609002E1DD0230002F07FFD0805060794
:1007900008090A0C121800BF00BF00BF00BF00BF4D
:1007A0006D090DE014212846FFF74AFE054607E0D3
:1007B0000C212846FFF744FE054601E0002500BF56
:1007C00000BF2846CFE700000040064070B5134840
:1007D000407802210840002805D110488079202166
:1007E0000840002801D0002070BD00F01BF804462E
:1007F000002C01D12046F7E70848C0786021084066
:1008000045090648C07880210840C609A800044967
:1008100040187100405A6043E6E70000004006407F
:100820001834000010B506488079102108400009EE
:10083000002802D1FFF790FF10BD02480068FBE7D7
:100840000040064000E0FF1F70B505462B0002F097
:100850001CFD0D080915162D314835393D414C4513
:100860004C0000BF00F0CCF8064622484068000F5C
:10087000411C3046FFF7E4FD044638E000BF00F0BD
:10088000BFF806461B484068000F411C3046FFF782
:10089000D7FD044617484068072212041040000C98
:1008A000411C2046FFF7CCFD044620E000F004F98F
:1008B00004461CE0FFF7FCFE044618E0FFF73CFF8F
:1008C000044614E000F018F8044610E0FFF77EFF3D
:1008D00004460CE000F0B4F8044608E07D24E4008F
:1008E00005E000F04FF8044601E0002400BF00BF1F
:1008F000204670BD4080044010B5054800780221B4
:100900000840002800D110BD00F004F8FBE700000B
:100910000040064008488079C007C00F002802D177
:100920000648006870470448007A0E2108404108D4
:1009300003480068C840F5E70040064000E0FF1F9C
:1009400004E0FF1F10B506480068002800D004E04E
:10095000CF2204A108A002F0E3FC0148006810BD0A
:1009600008E0FF1F647269766572735C66736C5F82
:10097000636C6F636B2E6300675F7874616C3046E5
:100980007265710010B50B4800788021084000287E
:100990000DD009480068002800D005E0FF22503241
:1009A00006A10BA002F0BCFC0348006810BD0020AB
:1009B000FCE700000050064008E0FF1F6472697603
:1009C0006572735C66736C5F636C6F636B2E630040
:1009D000675F7874616C3046726571000146064A43
:1009E000914201D8002005E0044A914201D801203B
:1009F00000E00220704700009798000000127A0083
:100A000010B50E4989790C2211408C08002C08D0B1
:100A1000012C09D0022C0AD0032C0BD100F010F8C5
:100A20000AE0FFF7D3FE07E0FFF774FF04E0FFF7EB
:100A300089FF01E0002000BF00BF10BD004006405C
:100A400010B51148807940210840002800D110BD20
:100A500000F02EF80446002C00D004E00B4A0CA154
:100A600010A002F05DFC08480079C006C00E411CD1
:100A70002046FFF7E5FC044603484079C006C00E57
:100A8000183044432046E2E7004006404F02000091
:100A9000647269766572735C66736C5F636C6F63B6
:100AA0006B2E63006D6367706C6C30636C6B000061
:100AB00010B5FFF747FF10BD10B50C484068012185
:100AC00009040840000C002802D0012809D103E0E5
:100AD000FFF77CFE044606E0FFF7B2FF0446640819
:100AE00001E0002400BF00BF204610BD008004408C
:100AF00070B504462068FFF771FF05461848227953
:100B00000178090909010B4613431946017000BF1A
:100B100000BF0178A0230A469A431146A2791143E7
:100B2000017000BF0F4840783C21884329013022E2
:100B300011400843617908430A49487060790028E8
:100B40000CD00748007880210840002806D000BF5C
:100B500004488079022108400028F9D070BD0000C7
:100B60000050064000400640014600BF074840785C
:100B700004221040002806D000BF044880790222D9
:100B800010400028F9D000207047000000400640C7
:100B9000F8B50346284880790C263040840826485A
:100BA0008079C507ED0F2448007A0E2630404008B2
:100BB00000900098824220D0012D14D1012C05D044
:100BC0001D4800780226304000280CD01A48407892
:100BD00040084000184E707000BF17488079C00769
:100BE000C00F0028F9D11448007A2F26B0435600D0
:100BF0000E273E403043104E30720F484078400878
:100C00004000CE07F60F30430B4E70703046007830
:100C10008008800018433070012C03D00220184057
:100C2000002806D000BF04488079C007C00F884262
:100C3000F9D10020F8BD00000040064070B505461F
:100C40000C461948407802218843174948700846E5
:100C50000078C421884380301349087000BF1248CF
:100C600080791C2108400828F9D10F48407940219B
:100C700088430D49487100BF0B4880792021084006
:100C80000028F9D12046FFF7A1FC07484079402110
:100C900008430549487100BF034880792021084076
:100CA0000028F9D0002070BD0040064010B5114A60
:100CB0004168516001780F4A403A526801231B0491
:100CC0009A430B040124240423401A43094B403B5C
:100CD0005A6000BF4178084A126803239B049A4374
:100CE0008B040324A40423401A43034B1A6000BF5F
:100CF00010BD00004080044000700440FFB585B086
:100D000000200190059C2070641C0798002826D0C4
:100D100006980668002E07D1302020700198401CEC
:100D20000190019809B0F0BD16E030460899FFF730
:100D30009DFB0490089904984843371A002F04DA61
:100D40003D46E8430746313700E03037049E2770C0
:100D5000641C0198401C0190002EE6D12EE00698FC
:100D6000006803900398002806D130202070019875
:100D7000401C01900198D5E71DE008990398FFF702
:100D80005FFB029008990298484303990D1A0A2DB7
:100D900001D2303508E028460A380E99002901D0E2
:100DA000412100E061214518029803902570641CE0
:100DB0000198401C019003980028DED10198B1E70A
:100DC0000FB438B50A480078002804D1401E38BC5A
:100DD00008BC04B0184705A800900648009A04997A
:100DE00000F00AF80446002000902046EFE70000DB
:100DF00020E1FF1F89100000F7B596B006460020DD
:100E00000C9000270A9004900290179D23E1252C56
:100E100005D02046B0470A98401C0A901AE10120EC
:100E20000590002009900B9011E0681C054604789D
:100E3000302C09DB392C07DC0A210998484321466C
:100E400030394018099002E06D1E01200B900B987C
:100E50000028EAD006200890681C054600782E2855
:100E600019D1002008900B9011E0681C0546047809
:100E7000302C09DB392C07DC0A210898484321462D
:100E800030394018089002E06D1E01200B900B983D
:100E90000028EAD000E06D1E681C05460478642C2A
:100EA00011D0692C0FD0662C0DD0462C0BD0782C8D
:100EB00009D0582C07D06F2C05D0622C03D0702C91
:100EC00001D0752C7ED1642C01D0692C11D11898D9
:100ED000006803901898001D189005980A230122B5
:100EE00003A900900DA8FFF709FF07460DA8C01938
:100EF0000C90582C01D0782C15D1782C01D10020E1
:100F000005901898006802901898001D1890059890
:100F10001023002202A900900DA8FFF7EFFE07465C
:100F20000DA8C0190C906F2C07D11898006802907A
:100F30001898001D189008200490622C0AD1189867
:100F4000006802901898001D1890022004900DA8C7
:100F5000C0190C90702C0AD118980068029018984B
:100F6000001D1890102004900DA8C0190C90752C2D
:100F70000AD11898006802901898001D18900A204D
:100F800004900DA8C0190C906F2C05D0622C03D0D2
:100F9000702C01D0752C0BD105980090002202A96D
:100FA0000DA8049BFFF7AAFE07460DA8C0190C90D8
:100FB0000AAB009639462020099A00F053F80C98A5
:100FC000002800E00EE044D007E00C990878491EA4
:100FD0000C91B0470A98401C0A900C9800780028A1
:100FE000F3D136E0632C0BD118980178001D1890CE
:100FF000C8B206900698B0470A98401C0A9028E0AC
:10100000732C21D11898006807901898001D18902B
:10101000079800281DD00798FFF73CFA07460AAB4F
:10102000009639462020099A00F01CF807E007993D
:101030000878491C0791B0470A98401C0A90079805
:1010400000780028F3D104E02046B0470A98401CFD
:101050000A9000BF6D1C2878041E00D0D7E60A98BD
:1010600019B0F0BDFFB581B00D4616461C462F469F
:1010700006E00A99019888472068401C20607F1C80
:10108000B742F6DB05B0F0BD01B50748007800288F
:1010900001D1401E08BD0449486801228B68694699
:1010A00098470120F6E7000020E1FF1F30B58B00D4
:1010B000C35807242402A343140207252D022C4001
:1010C00023438C00035130BD70B54F480078C021D8
:1010D0000840002868D14C48407940210840002849
:1010E0004ED14948007804210840002815D1474CCA
:1010F0004548007838210840C10801208840C5B221
:1011000029462046FFF79CF904463F4840783021A5
:101110000840002803D0640901E00124E4033A48B0
:10112000C078E0210840C106C90E002926D140112F
:10113000030002F0AAF80805090D1115191D202356
:101140000520C00144431AE005200002444316E094
:101150000F20C001444312E00520400244430EE04A
:10116000B720800044430AE0B720C000444306E0B3
:101170002748444303E02748444300E000BF38E0E9
:1011800021480079C006C00E451C29461F48FFF7BC
:1011900057F904461C484079C006C00E054618356C
:1011A00020466843044624E017480078C0210840E0
:1011B000402815D114484078C007C00F002802D13C
:1011C0000124E40315E01048007A0E221040420882
:1011D0000120904001461048FFF732F9044608E02C
:1011E00009480078C0210840802801D1074C00E060
:1011F00070BD0A484068000F411C2046FFF720F9E7
:101200000749086000BFF3E70040064000127A007B
:1012100095080000710B000000093D00408004406B
:101220001CE1FF1F002017490860012040041549F8
:10123000C0394860062014490870084640784021AB
:101240000840114948700846C0788006800E202169
:1012500008430D49C87080200C49087000200A49D5
:101260000871487100BF08488079102108400028A3
:10127000F9D000BF044880790C2108400028F9D13A
:1012800070470000008104400040064000500640C6
:1012900010B50249086801F012FC10BD30E1FF1FD3
:1012A00038B51BA00068009068460478FFF70CFF73
:1012B0000420FFF7C9FA0546294605200004FFF778
:1012C000C1F9002013494871087108600A461249A3
:1012D00000F014FE002803D010A0FFF771FD38BD08
:1012E00015A0FFF76DFD032160B201F0DDFF60B2D4
:1012F000002805DBC206D20E01219140174A116079
:1013000000BF0449086801F0F4FE00BFE7E70000F1
:101310001800000030E1FF1F8914000055534220DF
:101320006465766963652076636F6D206661696CBC
:1013300065640D0A0000000055534220646576691B
:10134000636520434443207669727475616C206341
:101350006F6D2064656D6F0D0A00000000E100E014
:1013600070B501251F48007901283AD11D488079C0
:10137000012836D11C48006800281DD01A48006892
:10138000A91E884218D0002009E0184A135C184AA8
:1013900011684A1C164C2260164A5354401C1249CC
:1013A00009688842F1D300210F4A11604921114A8E
:1013B00011707321517000BF0D480068002810D0D3
:1013C0000B48046800200A49086006492346094A78
:1013D0000868022101F095FE054607A0FFF7F0FC22
:1013E00000BF70BD30E1FF1F1CE0FF1F4EE1FF1F7B
:1013F00020E0FF1F8EE1FF1F446174617265636529
:10140000697665640D0A0000F8B505460E46684623
:1014100001F030FF002413E05020604319490858C0
:1014200000280CD05020604340184030407BA84238
:1014300005D16846007801F023FF0120F8BD641C47
:10144000002CE9D0002415E0502060430D490858D5
:1014500000280ED150206043401840304573502082
:101460006043401830606846007801F009FF0020B2
:10147000E4E7641C002CE7D06846007801F000FF28
:101480000220DBE700E6FF1FF0B585B004460E46FC
:101490001546012004902F46012E02D0072E78D148
:1014A00007E03E49086800F0BDFB00203B49087199
:1014B00070E0002D6BD00120384908713878C87170
:1014C0003878012863D1364800900194002168469D
:1014D00001730321C1728121817230484079022851
:1014E00003D110206946088102E010206946088176
:1014F0002A496A46086802A900F080FD2948009040
:1015000001940021684601730221C1728221817217
:1015100022484079022803D100026946088102E08E
:101520004020694608811D496A46086802A900F002
:1015300065FD1D4800900194002168460173022159
:10154000C1720321817215484079022803D100023B
:101550006946088102E04020694608810F496A46D1
:10156000086802A900F04AFD0C484079022803D11E
:1015700000020E49086002E040200C4908600B4858
:101580000B4A03210368204601F07EFD00BF01E005
:10159000FFE700BF00BF049805B0F0BD30E1FF1FBA
:1015A0006D160000B51500002116000024E0FF1F95
:1015B0004EE1FF1FF8B505460C4617460126606848
:1015C00000280DD0134960680968FEF739FF00292B
:1015D00006D100231A460221284601F092FD17E0A9
:1015E0000D480079012813D10B48807901280FD1CB
:1015F0002068002805D12068002809D160680028EB
:1016000006D10448054A03210368284601F03CFD41
:101610003046F8BD24E0FF1F30E1FF1F4EE1FF1F01
:10162000F8B505460C46174601260C4800790128F6
:1016300011D10A48807901280DD1094960680860F4
:1016400008460068002806D10648074A03210368B7
:10165000284601F019FD3046F8BD000030E1FF1FBB
:101660001CE0FF1F24E0FF1F4EE1FF1F10B50346E3
:10167000012010BDF8B506460F4614461D466A46C1
:101680000621304600F0F0FB68460078012805D0BE
:1016900068460078002801D00520F8BD01202860A8
:1016A000034820600146304600F050FBF5E700009B
:1016B00038E0FF1FF8B506460F4614461D466A4639
:1016C0000621304600F0D0FB68460078012809D09A
:1016D00068460078002805D068460078022801D0C6
:1016E0000520F8BD23462A463946304600F048FB1F
:1016F000F7E70000FEB507460C4615461E460520D6
:1017000001906A460621384600F0AEFB6846007834
:10171000002801D00198FEBD0120306003482860F8
:1017200021790246384600F08BFBF4E738E0FF1FD2
:10173000FEB507460C4616461D460520029001AA36
:101740000621384600F090FB68460079012805D054
:1017500068460079002801D00298FEBD2078C006B6
:10176000C00E002811D11F4A0421384600F07CFB2E
:1017700002901C4800788007800F1A4908800846AC
:10178000008808800220286027E02078C006C00E6C
:10179000012806D10020029012490880022028600A
:1017A0001BE02078C006C00E022816D121796846B9
:1017B0000170002141806A460521384600F054FB43
:1017C0000290684640888007800F064908800846D6
:1017D000008808800220286000BF0248306002981C
:1017E000BBE7000038E0FF1FF8B506460C46174679
:1017F00005256A460621304600F036FB684600782B
:10180000032809D068460078012805D0684600788A
:10181000022801D02846F8BD68460078032808D081
:10182000A07800906A460721304601F09DFC0546ED
:101830000FE000220721304601F096FC0546002DFE
:1018400007D1012000906A460621304601F08CFC49
:1018500005462846DFE7F8B506460C46052700256D
:101860006A460621304600F0FFFA684600780128F3
:1018700005D068460078002801D03846F8BD607869
:10188000032800D101252078C006C00E002808D109
:101890006088012823D12946304600F097F8074692
:1018A0001DE02078C006C00E022818D160880028EC
:1018B00015D120790007000F00280AD1002D04D08F
:1018C0002179304601F08DFC03E02179304601F0AA
:1018D000C1FC21792A46304600F068F807463846B0
:1018E000CCE7F8B505460C4616461F466A46062163
:1018F000284600F0B9FA68460078012805D0684605
:101900000078002801D00520F8BD002000906A462C
:101910000621284601F028FC6088002806D1012015
:1019200000906A460621284601F01EFCA178284650
:1019300001F0F6FBE8E7F8B505460C4616461F46EB
:101940006A460621284600F08FFA6846007800288B
:1019500001D00520F8BDA2782179284601F0F4FBDA
:10196000F8E70000FEB507460C4615461E46052062
:1019700001906A460621384600F076FA68460078FB
:10198000002801D00198FEBDA088074908800A46BA
:101990000821384600F068FA0190034828600220C8
:1019A00030600198EFE7000038E0FF1F70B5054692
:1019B0000E461446002C04D03146284601F011FC96
:1019C00070BD3146284601F045FCF9E70246052086
:1019D0007047F8B505460E4617462C460120009084
:1019E000002C01D10320F8BD6068002807D0616891
:1019F00020683A464B6931469847009001E006203E
:101A000000900098EFE70000F7B588B00C46002082
:101A1000059004900526B11F6068884202D13046C7
:101A20000BB0F0BD07A9089800F012FA03AA06212E
:101A3000089800F019FA207A002875D06068082804
:101A400002D12068002801D13046E9E7256868887E
:101A500007994880A88807998880E8880799C880EE
:101A6000687807994870287807990870079800786F
:101A700060210840002811D107984078800046492D
:101A80000858002843D00798407880000F5804ABCE
:101A900005AA07990898B847064638E00798C0880D
:101AA000002827D00798007880210840002821D1FD
:101AB0000798C088002811D0079800782021084096
:101AC00020280BD10798C088049006AB04AA079978
:101AD000089800F02BF9064600200490002E16D13D
:101AE0000798C3880021069A089801F0CDFA0646A7
:101AF000304695E70798007820210840202806D135
:101B000005AB04AA0799089801F0E6F9064604A86F
:101B100005A900233246009101900799089800F02A
:101B20003DF8064635E0FFE76846007B03280BD109
:101B300007984078800018490D5804AB05AA07990A
:101B40000898A847064624E06068002821D0079836
:101B5000C08800281DD00798007880210840002800
:101B600017D10798007820210840202806D1234665
:101B7000221D0799089801F0AFF9064604A805A9A7
:101B800001233246009101900799089800F006F869
:101B90000646304644E7000038340000FFB583B005
:101BA0000C4616461F460D9D012002900190052E01
:101BB00018D120786021084000280BD0207880219F
:101BC0000840002806D1E088002803D0002F01D16A
:101BD000002001900198C007010E039801F001FB5D
:101BE00002901CE0E1882868884201D9E0882860DA
:101BF0002B680C9800210268039801F082FA029089
:101C0000029800280BD1207880210840802806D136
:101C100000231A461946039801F036FA02900298FA
:101C200007B0F0BD7FB5054614480090019501212D
:101C3000684601730021C1728021817240210181B7
:101C40006A4602A9284600F0D9F90446002C02D0C1
:101C5000204604B070BD0020694688726A4602A919
:101C6000284600F0CBF90446002C05D080212846F8
:101C700000F01BF82046ECE70020EAE7091A000014
:101C800070B505462C46002C01D1032070BD60685C
:101C9000002805D06268206851688847002060608D
:101CA000204600F032F80020F0E7F3B581B004469A
:101CB00025466846007A0607360F6846007A802176
:101CC0000840C70901200090002D01D10320FEBD6E
:101CD00002AA03212046FFF77CFE0090042E10D2BA
:101CE00000217006000E3843C20028460C30815097
:101CF0007006000E3843C20028460C3010184160B0
:101D000001E00420E3E70098E1E738B504466846BF
:101D100001F0B0FA0020206000214D2001556846F6
:101D2000007801F0ADFA002038BD000010B504467F
:101D3000002B02D01068082801D9052010BD0248E8
:101D400018600020FAE7000030E0FF1F024602485A
:101D500000780870002070473CE0FF1F0246062014
:101D6000002A02D0012A05D100E000BF034B0B601E
:101D7000002000E000BF00BF704700006C3400008E
:101D8000FCB54888FF252D022840000A01908C7878
:101D9000002000904878062801D00520FCBD01985D
:101DA000012837D002283AD003283DD1002C06D193
:101DB0002048006818601F484068106029E0002033
:101DC00003250EE01B4EB6680C274743F6193689EB
:101DD0008F88BE4203D1032C00DA254603E0461C5F
:101DE000F0B20128EEDB00BF032D00D10020114E20
:101DF000B6680C274743F659AF00F6591E600D4EE2
:101E0000B6680C274743F6197668AF00F659166096
:101E100000BF0CE0084818601220106007E0074877
:101E200018604320106002E00520009000BF00BF52
:101E30000098B3E70CE1FF1F3FE0FF1F51E0FF1FD9
:101E400003460248405C1070002070473DE0FF1FD1
:101E50000246002901D10420704702480860002092
:101E6000FAE7000028E0FF1FF8B506460F461446C3
:101E700001200090002C01D10420F8BDB81E030001
:101E800001F003FA07050C232A131B313800224600
:101E90000C213046FFF79DFD00902CE022460D21DD
:101EA0003046FFF796FD009025E025460020009083
:101EB0004E20805D2C4628701DE0254600200090B5
:101EC0004C20805D2C46287015E0224606213046C5
:101ED000FFF77FFD00900EE0224607213046FFF716
:101EE00078FD009007E0224609213046FFF771FD9A
:101EF000009000E000BF00BF0098BEE7F7B582B0D9
:101F00000746164600200190002E02D1032005B09E
:101F1000F0BD01A93846FFF777FA0446002C01D03E
:101F20002046F4E701990398886001984030477390
:101F3000002101984030017301984030C1730025A1
:101F40000AE00021EA0001980C308150EA00019873
:101F50000C30101841606D1C082DF2D30199091D39
:101F60003846FFF7FBFE0446002C04D00198FFF72B
:101F7000CCFE2046CBE701984068002804D10198A8
:101F8000FFF7C3FE0620C2E70198406800680028FA
:101F900018D0019840684068002813D00198406824
:101FA000806800280ED001984068C068002809D0D9
:101FB000019840680069002804D001984068406991
:101FC000002804D10198FFF7A0FE07209FE70198A1
:101FD00040680368019A1146384698470446002C29
:101FE00004D00198FFF74CFE204690E702210198AB
:101FF0004030817301983060204688E7F7B582B0A1
:102000000C461546029F002F02D1032005B0F0BDFB
:10201000002C01D0002D01D10420F7E7A07806079D
:10202000360FA07880210840C0090190042E13D2F9
:102030007006000E2A6801990843C10038460C302A
:1020400042507006010E6A6801980143C900384683
:102050000C300818426001E00420D7E72246022134
:102060000298FFF7B6FCD1E7FEB507460D463C46A1
:102070002807C00E80212940C909084306463101BE
:1020800020462030081880894004C00F00281CD04A
:102090000020C0430190310120462030405800907C
:1020A000684605720021417231012046203008182F
:1020B000C06801218903884332012146203151182B
:1020C000C8606946206800F0F2FE0020FEBDF7B54A
:1020D00082B01446029D01200190029D002D02D184
:1020E000032005B0F0BD0398030001F0CEF81009FD
:1020F0002F485059626B74939E9FA0B6BEBFC0C15B
:102100000021A868FF3001300170A868007F042119
:102110000840002805D0A868007F80210843A968EE
:102120000877A868FF300130007A10210843A968B9
:10213000FF3101310872A8688030007D0121084319
:10214000A968803108750020019092E0A868007F9E
:1021500004210840002805D0A868007F802188431A
:10216000A9680877A868FF300130007A10218843F9
:10217000A968FF31013108720020019079E0002C3C
:1021800004D02146284600F0BFF8019071E0002CF1
:1021900005D026463178284600F091F8019068E095
:1021A000002C05D026463178284600F029F9019008
:1021B0005FE0002C05D026463178284600F0BDF9B6
:1021C000019056E0002C05D000940120009C208056
:1021D000002001904DE0002C1BD02046017809071B
:1021E000090F042914D201780907C90E0278802347
:1021F0001A40D20911430A01294620315118898910
:102200004905C90F012251405140418000210191EF
:1022100000BF2EE0002C07D0264634463178A8684F
:10222000803001760020019023E022E021E00027A9
:102230000BE0802038430146284600F040F839463C
:10224000284600F03CF8781CC7B2042FF1D328468A
:1022500000F08BFD002001900BE0002C04D02646FE
:10226000002034463070019003E002E001E000E01D
:1022700000BF00BF019834E702461146002A01D191
:1022800003207047FF23886880300370886880309F
:102290000079002388688030037188688030037675
:1022A0008868803003758868FF3001300078C0236B
:1022B00018438B68FF33013318700020E1E7F8B54D
:1022C00004460D462E07360F80202840C009009096
:1022D000700000990843074629462046FFF7C4FED0
:1022E0000021A068C030B20081543901204620305E
:1022F0000818C068800A80023A012146203151182E
:10230000C8600020F8BD0000FEB504460F463888BE
:102310000190B8780607360FB87880210840C009C8
:1023200000907000009908430546F878012806D10E
:1023300032490198884211D9084601900EE001986F
:10234000402801D940200190A068C030B100405C15
:1023500001210843A168C031B200885429012046F8
:1023600020300818C0680121890388432A012146CA
:1023700020315118C8602901204620300818C06853
:10238000800A800201998905890D08432A012146A6
:1023900020315118C8602901204620300818C06833
:1023A0000121C90288432A01214620315118C86001
:1023B0002901204620300818C0680121890288437D
:1023C0002A01214620315118C860A068C030B100F0
:1023D000405C0099012901D1042100E00821084353
:1023E000A168C031B2008854002E05D100980028A1
:1023F00002D1204600F084FB0020FEBDFF03000058
:10240000F3B581B0044602980607360F8021029882
:102410000840C70970003843054620460299FFF777
:1024200023FE2901204620300818C06801218902B6
:10243000884341182A01204620301018C160290124
:102440002046203008188089800580090C308021C2
:1024500001436068400A4002720110433A01104390
:102460002A0123462033D2189289D204D20FD200F7
:1024700010430160A0688030007D20218843A1685E
:10248000803108750020FEBDFFB581B004460E46C0
:102490001746700038430546684600F0EBFE2901F8
:1024A000204620300818C06801218903884341185C
:1024B0002A01204620301018C16004996068400A43
:1024C00040023207D20D1043FA07D20E10432A0100
:1024D00023462033D2189289D204D20FD20010435F
:1024E00041600A988005800988302A0119465118F0
:1024F00089890905C90F890101436068400A4002C2
:102500003207D20D1043FA07D20E10432A01D21817
:102510009289D204D20FD20010430160684600783D
:1025200000F0AEFEA0688030007D20218843A168C5
:1025300080310875002005B0F0BDF3B581B00446C8
:10254000029805072D0F802102980840C7096800EE
:10255000384306463101204620300818C068012162
:10256000890288433201214620315118C860310167
:10257000204620300818C0680121C9028843320172
:10258000214620315118C86000202AE06168490ABC
:1025900049022A07D20D1143FA07D20E1143C2078E
:1025A000120F11430968009104220099114000297B
:1025B00015D03201214620315118898989058909B0
:1025C0000A4608326168490A49022B07DB0D1943A4
:1025D000FB07DB0E1943C3071B0F19430A60411C9D
:1025E000C8B20228D2D3A068C030A900415C022042
:1025F0008143A068C030AA008154002D04D1002F6F
:1026000002D1204600F07CFAA0688030007D2021B5
:102610008843A168803108750020FEBDF8B50546E5
:102620000E4617462048006800902846012802DA26
:102630002846002801D00620F8BD2846A42148439A
:102640001A494418A22005552846800069460858B2
:10265000A0602846800116494018E061FF21A0686B
:1026600080300170002201212046FFF730FD28460E
:102670004002104940186060A0880004010EA06864
:102680008030017760680002010EA068A0300174FC
:102690006068000EA168A0310875204600F065FB57
:1026A0003C6026600020C7E78434000050E6FF1F2E
:1026B000F4E6FF1F00E4FF1F3EB504460121A12000
:1026C0000155A068803001700020009010216846FC
:1026D000017200200190002168464172694620681D
:1026E00000F0E5FB3EBD10B504468021A0688030B7
:1026F0000170A08F4005C00F002804D1A08D4005B7
:10270000C00F002807D080212046FFF716FF0021C8
:102710002046FFF712FF10BDF0B58BB00446A0684D
:102720008030007C0290F0210298084006090821C0
:1027300002980840C00805900421029808408008CB
:1027400004900821A068803001706068400A40024F
:10275000710108430599090108430499C900084318
:1027600000680A900A988001870D0A988006000F79
:102770000D2801D1012000E0002003907006050E15
:1027800005990D432901204620300818808940040E
:10279000C00F002801D10BB0F0BD0398002802D073
:1027A000A32104980855059801287DD129012046C8
:1027B000203008188068C1192A01204620301018DE
:1027C000816029012046203008182A0141682046EE
:1027D000203010188068081A0990290120462030FE
:1027E0000818C0680121C90288432A012146203106
:1027F000511889890905C90F01225140C902D20225
:10280000114008432A01214620315118C86029018E
:10281000204620300818C0680121090388432A0196
:102820002146203151188989C904C90F012251401C
:1028300009031203114008432A012146203151188F
:10284000C8600998002808D02901204620300818BF
:1028500080898005800DB8423DD92901204620306D
:1028600008188068079029012046203040580690BB
:102870002901204620300818C068012189038843B7
:102880002A01214620315118C860290120462030F4
:10289000081880898005800DB8421BD1002EFCD11C
:1028A000A320005DC10000E022E020460C300818A3
:1028B00001900198C1882A012046203010184068F4
:1028C000814207D9206800231A463146009000F063
:1028D00018FC60E7DDE029012046203042588020C6
:1028E0003043019001462046099B00F0D2F952E79F
:1028F000002E05D1002F03D1002007900690C8E0DC
:10290000290120462030081880898004C00F002843
:1029100026D16068400A40023207D20D10432A01D6
:1029200023462033D2189289D204D20FD20010430A
:1029300041682A01184680582A01D21892688018E6
:1029400001900198814207D0002003E00B5C019ABE
:102950001354401CB842F9D30022A020025500BFF6
:1029600029012046203008188068C1192A01204614
:1029700020301018816029012046203008182A01D3
:1029800041682046203010188068081A0990002EEF
:1029900015D10398002812D08020304301462046EC
:1029A000FFF762FB0121C902E06A88434118E16236
:1029B0000121C902E06B88434118E16319E0290154
:1029C000204620300818C0680121C90288432A0126
:1029D00021462031511889890905C90F012251402A
:1029E000C902D202114008432A0121462031511860
:1029F000C8602901204620300818C0680121090359
:102A000088432A012146203151188989C904C90FF8
:102A10000122514009031203114008432A012146B3
:102A200020315118C860290120462030081840681C
:102A300000280BD00998002808D029012046203012
:102A4000081880898005800DB84218D929012046D0
:102A5000203008188068079029012046203040580F
:102A600006902901204620300818C06801218903FA
:102A700088432A01214620315118C86009E0290104
:102A800020462030425831462046099B00F059F834
:102A900081E608A9039848700598C007000E3043E6
:102AA000087006A9206800F002FAA0688030007D56
:102AB00020218843A1688031087500BF6BE6F8B516
:102AC00005462F46002D00D1F8BD3E68B068803025
:102AD000047808202040002802D03046FFF71CFE72
:102AE000E007C00F002802D03046FFF7E5FD802048
:102AF0002040002802D03046FFF7F5FD00BFE3E795
:102B000038B50446A08DC004C00FC10020460C306B
:102B1000081820620021A162082161628902E06A2E
:102B200088434118E1620121C902E06A8843E062FA
:102B300008200090002211462046236AFFF7A4FCDB
:102B400038BDFFB583B017461E46039C04980007A6
:102B5000C50E0120029029012046203008188089E6
:102B60004004C00F00280CD100212A01204620304B
:102B7000101881602901204620304750290108188B
:102B800046602901204620300818C0680121490309
:102B9000884341182A01204620301018C1602901BD
:102BA00020462030081880898005800DB04206D26A
:102BB000290120462030081880898605B60D290194
:102BC0002046203008188068C719E06900281ED008
:102BD000A020005D00281AD1402E18D8B007800F21
:102BE000002803D1B807800F002810D02901204603
:102BF00020300818C0680121490388432A01214672
:102C000020315118C860E7690121A0200155A12099
:102C1000005D002809D1009604980107090F3B4682
:102C200000222046FFF730FC0290002E2ED104989F
:102C30000007000F002829D129012046203008185C
:102C4000C0680121090388432A0121462031511817
:102C50008989C904C90F0122514009031203114097
:102C600008432A01214620315118C8602901204615
:102C700020300818C0680121890388432A012146B1
:102C800020315118C8602046FFF73AFF029807B07C
:102C9000F0BDFFB583B00F461E46039C3807C00E3B
:102CA000451C012002902901204620300818808907
:102CB0004004C00F00281DD100212A0120462030E9
:102CC000101881602A012146203105988850290179
:102CD0002046203008184660290120462030081878
:102CE000C06801214903884341182A012046203049
:102CF0001018C160290120462030081880898005FD
:102D0000800DB04206D22901204620300818808963
:102D10008605B60DA120005D002813D129012046AB
:102D200020300096405829012246203289188968AF
:102D300043183807000F0122014601902046FFF793
:102D4000A3FB029029012046203008188068002843
:102D500008D1002E06D13807000F002802D12046E6
:102D6000FFF7CEFE029807B0F0BD30B5FF238168B3
:102D700080310B7281688031097D02231943836899
:102D8000803319750023816880310B7600212EE095
:102D9000002443685B0A5B020D07ED0D2B431C60AA
:102DA00043685B0A5B020D07ED0D2B439C60436893
:102DB0005B0A5B020D07ED0D2B431C6143685B0A48
:102DC0005B020D07ED0D2B439C614D010346203343
:102DD000EB18DC604B005B1C1D0103462033EB1835
:102DE000DC608368C0338D005C554B1CD9B204296C
:102DF000CED30023A0210B5481688031097D0223AA
:102E00009943836880331975FF23816880310B7380
:102E10008922816880310A710023A1210B548168C5
:102E20008031097D2023994383688033197530BD33
:102E3000F0B585B005460C46207A0607360F207A95
:102E400080210840C70901200390207A102805D16D
:102E50002146284600F025F9039024E0042E21D2D3
:102E60007006000E3843C10028460C304058002838
:102E700018D02068009060680190607A69460872F6
:102E80007006000E3843C00029460C3140184268D5
:102E90007006000E3843C0000B5869462846984714
:102EA000039000BF00BF00BF039805B0F0BDF8B5A8
:102EB00004460D4626462F46002D01D0002C01D198
:102EC0000320F8BDB068002801D10120F9E7394698
:102ED0003046FFF7ADFFF4E7FFB583B00D46174668
:102EE0001E4605200290564CA888002802D0029861
:102EF00007B0F0BD6878042834D008DC00280FD073
:102F000001280ED002280DD003287CD118E02028FB
:102F100030D0212827D0222831D02328F5D18AE0AB
:102F20008BE08AE06888012802D14648306004E0DE
:102F30006888022801D144483060002002907CE07B
:102F40006888012804D13F4830600220386006E0DC
:102F50006888022803D13C48306002203860002095
:102F600002906AE069E0394830600720386000204C
:102F7000029062E035483060002002905DE0A87861
:102F8000A073A07B02210840002803D0208A0843B8
:102F9000208203E0208A2E4908402082A07BC007BF
:102FA000C00F002804D0208A01210843208204E0B9
:102FB000208A2749491C08402082A07BC007C00FF7
:102FC000A072A1202070202060700020A070E0700E
:102FD000207160710220A0710020E07128792071B9
:102FE000204608300090218A009801800A20019034
:102FF00022460121019B039800F083F80290029879
:10300000002804D000E017E012A0FDF7D9FEA07B55
:10301000C007C00F002806D01A480079012809D13E
:103020001849887106E017480079012802D100206C
:103030001449887101E000E000BF00BF029857E723
:103040003CE1FF1F17E0FF1F19E0FF1F10E0FF1F0B
:10305000FDFF00006B5553425F446576696365432D
:1030600064634576656E74536574436F6E74726FF6
:103070006C4C696E655374617465206572726F7211
:103080002100000030E1FF1FF8B505460C4616464A
:103090001F462107090F3B463246284600F0B1F88B
:1030A000F8BD70B504460D4601214F2001550022A0
:1030B0000B212046FEF78DFC02214E2001550021F8
:1030C0004C200155002008E00022C30021460C31AD
:1030D000CA50C30059184A60401C0828F4D3002283
:1030E00001212046A368984700214F200155002068
:1030F00070BD10B50446002211462046FEF769FC5B
:1031000010BDF8B505460C4616461F462007000FB1
:10311000014680313B463246284600F072F8F8BD41
:1031200013B5044668460079002801D101201CBD72
:10313000684600790349087001AA07212046FEF776
:10314000A3F9F4E73CE0FF1F37B5054614460548F0
:1031500069460979445401AA08212846FEF794F9E2
:103160003EBD00003DE0FF1FF8B504460E46154683
:103170000127032E06D0062E0BD0072E10D0092EC5
:103180002BD123E02A460E212046FEF722FC0746DB
:1031900024E0002D03D0002729784E2001551DE0A2
:1031A0004E20005D032809D0002D0ED0002729787D
:1031B0004C20015503214E20015506E022464C3299
:1031C00008212046FEF705FC074607E02A460A21AB
:1031D0002046FEF7FEFB074600E000BF00BF384672
:1031E000F8BD13B50446684600790007000F0428AF
:1031F00005D201AA04212046FEF7EBFB1CBD0420EA
:10320000FCE7FFB581B005460E462C460120009034
:10321000002C02D1032005B0F0BD6068002815D055
:1032200080203040002808D0616820688F683146CF
:10323000049B039AB84700900AE061682068CF6851
:103240003146049B039AB847009001E006200090A5
:103250000098E0E713B50446684600790007000FC0
:10326000042805D201AA05212046FEF7B2FB1CBDA9
:103270000420FCE700BFEFF31081017072B67047C5
:1032800000BF80F3108800BF704730B47446641EDE
:103290002578641CAB4204D3635D5B00E31830BC4B
:1032A00018471D46F8E7000010B5002819DB1A4A38
:1032B00003231B02D21883089B00D2588307DC0E1D
:1032C000FF23A3409A438B071B0E8407E40EA34001
:1032D0001A43114B032424021B198408A4001A5119
:1032E00018E00E4A03071B0F083B9B089B00D258AF
:1032F0008307DC0EFF23A3409A438B071B0E840732
:10330000E40EA3401A43054B0407240F083CA4080D
:10331000A4001A5110BD000000E100E01CED00E027
:1033200004460D46164633462A46214602A0FDF7BE
:1033300047FD00BF00BEFDE74153534552542045B1
:1033400052524F52202220257320223A2066696C67
:10335000652022257322204C696E65202225642277
:10336000200A000002E008C8121F08C1002AFAD192
:1033700070477047002001E001C1121F002AFBD1F5
:103380007047FDF7D1F8FDF79FF8FDF789FF01E0E1
:10339000FDF7E6FFFCE7000002020100000000006C
:1033A00000000000000300000000040000127A008A
:1033B0000004800000093D00070200000300000037
:1033C00001000000010300000000011000127A005B
:1033D00000048000006CDC0200010103040404040A
:1033E00000010203040404040101020101010101BE
:1033F000000101030404040400010103040506069E
:103400000404040404050606040404040405060771
:1034100006060606060606068002DC020005B8055A
:1034200080079508000A710B127A00009798000037
:10343000C0C62D00404B4C0031170000571800004B
:10344000000000005718000000000000E91700000D
:10345000B51600000000000075160000E31800001B
:10346000F516000037190000651900001D26000040
:1034700079220000932C0000432B000069200000FB
:10348000CF20000000200740A834000000E0FF1F0C
:103490002001000064330000C835000020E1FF1F58
:1034A00014060000743300000080000000093D0095
:1034B000000000000000000000C201000000080041
:1034C00000000000000000000000000040000000BC
:1034D00000000000000000000000000000000000EC
:1034E000000000000000001201000202000040C9BC
:1034F0001F00030101010200010902430002010053
:10350000C03209040000010202000005240010017D
:103510000524010101042402060524060001070513
:10352000810310000809040100020A0000000705D9
:103530008202400000070503024000000403090462
:1035400026034E00580050002000530045004D0057
:10355000490043004F004E00440055004300540012
:103560004F00520053002A034D0043005500200035
:103570005600490052005400550041004C00200004
:1035800043004F004D002000440045004D004F0017
:1035900094E0FF1F98E0FF1FBEE0FF1F0400000043
:1035A000260000002A000000E8E0FF1FF4E0FF1FF3
:1035B0000904000094E0FF1F0400000000E1FF1F69
:0835C000010000000000800280
:0400000500000411E2
:00000001FF
